sudo tcpdump -XXi lo port 3000

20:52:07.123801 IP localhost.46744 > localhost.3000: UDP, length 33
	0x0000:  0000 0000 0000 0000 0000 0000 0800 4500  ..............E.
	0x0010:  003d afcd 4000 4011 8ce0 7f00 0001 7f00  .=..@.@.........
	0x0020:  0001 b698 0bb8 0029 fe3c 4869 2055 4450  .......).<Hi.UDP
	0x0030:  2053 6572 7665 722c 2048 6f77 2061 7265  .Server,.How.are
	0x0040:  2079 6f75 2064 6f69 6e67 3f              .you.doing?
20:52:07.123907 IP localhost.3000 > localhost.46744: UDP, length 38
	0x0000:  0000 0000 0000 0000 0000 0000 0800 4500  ..............E.
	0x0010:  0042 afce 4000 4011 8cda 7f00 0001 7f00  .B..@.@.........
	0x0020:  0001 0bb8 b698 002e fe41 4672 6f6d 2073  .........AFrom.s
	0x0030:  6572 7665 723a 2048 656c 6c6f 2049 2067  erver:.Hello.I.g
	0x0040:  6f74 2079 6f75 7220 6d65 7373 6167 6520  ot.your.message.

