21:45:47.278485 IP localhost.35449 > localhost.domain: 56760+ [1au] A? adamubuntuvm. (41)
	0x0000:  0000 0000 0000 0000 0000 0000 0800 4500  ..............E.
	0x0010:  0045 eec9 4000 4011 4da8 7f00 0001 7f00  .E..@.@.M.......
	0x0020:  0035 8a79 0035 0031 fe78 ddb8 0100 0001  .5.y.5.1.x......
	0x0030:  0000 0000 0001 0c61 6461 6d75 6275 6e74  .......adamubunt
	0x0040:  7576 6d00 0001 0001 0000 2904 b000 0000  uvm.......).....
	0x0050:  0000 00                                  ...
21:45:47.278501 IP localhost.35449 > localhost.domain: 45759+ [1au] AAAA? adamubuntuvm. (41)
	0x0000:  0000 0000 0000 0000 0000 0000 0800 4500  ..............E.
	0x0010:  0045 eeca 4000 4011 4da7 7f00 0001 7f00  .E..@.@.M.......
	0x0020:  0035 8a79 0035 0031 fe78 b2bf 0100 0001  .5.y.5.1.x......
	0x0030:  0000 0000 0001 0c61 6461 6d75 6275 6e74  .......adamubunt
	0x0040:  7576 6d00 001c 0001 0000 2904 b000 0000  uvm.......).....
	0x0050:  0000 00                                  ...
21:45:47.278669 IP localhost.domain > localhost.35449: 56760 1/0/1 A 192.168.102.128 (57)
	0x0000:  0000 0000 0000 0000 0000 0000 0800 4500  ..............E.
	0x0010:  0055 5af3 4000 4011 e16e 7f00 0035 7f00  .UZ.@.@..n...5..
	0x0020:  0001 0035 8a79 0041 fe88 ddb8 8180 0001  ...5.y.A........
	0x0030:  0001 0000 0001 0c61 6461 6d75 6275 6e74  .......adamubunt
	0x0040:  7576 6d00 0001 0001 c00c 0001 0001 0000  uvm.............
	0x0050:  0000 0004 c0a8 6680 0000 29ff d600 0000  ......f...).....
	0x0060:  0000 00                                  ...
21:45:47.278793 IP localhost.domain > localhost.35449: 45759 1/0/1 AAAA fe80::20c:29ff:fe89:46f5 (69)
	0x0000:  0000 0000 0000 0000 0000 0000 0800 4500  ..............E.
	0x0010:  0061 5af4 4000 4011 e161 7f00 0035 7f00  .aZ.@.@..a...5..
	0x0020:  0001 0035 8a79 004d fe94 b2bf 8180 0001  ...5.y.M........
	0x0030:  0001 0000 0001 0c61 6461 6d75 6275 6e74  .......adamubunt
	0x0040:  7576 6d00 001c 0001 c00c 001c 0001 0000  uvm.............
	0x0050:  0000 0010 fe80 0000 0000 0000 020c 29ff  ..............).
	0x0060:  fe89 46f5 0000 29ff d600 0000 0000 00    ..F...)........
21:45:47.670541 IP localhost.42062 > localhost.domain: 48044+ [1au] PTR? 53.0.0.127.in-addr.arpa. (52)
	0x0000:  0000 0000 0000 0000 0000 0000 0800 4500  ..............E.
	0x0010:  0050 eee0 4000 4011 4d86 7f00 0001 7f00  .P..@.@.M.......
	0x0020:  0035 a44e 0035 003c fe83 bbac 0100 0001  .5.N.5.<........
	0x0030:  0000 0000 0001 0235 3301 3001 3003 3132  .......53.0.0.12
	0x0040:  3707 696e 2d61 6464 7204 6172 7061 0000  7.in-addr.arpa..
	0x0050:  0c00 0100 0029 04b0 0000 0000 0000       .....)........
21:45:47.670667 IP localhost.domain > localhost.42062: 48044 1/0/1 PTR localhost. (75)
	0x0000:  0000 0000 0000 0000 0000 0000 0800 4500  ..............E.
	0x0010:  0067 5afb 4000 4011 e154 7f00 0035 7f00  .gZ.@.@..T...5..
	0x0020:  0001 0035 a44e 0053 fe9a bbac 8180 0001  ...5.N.S........
	0x0030:  0001 0000 0001 0235 3301 3001 3003 3132  .......53.0.0.12
	0x0040:  3707 696e 2d61 6464 7204 6172 7061 0000  7.in-addr.arpa..
	0x0050:  0c00 01c0 0c00 0c00 0100 0000 0000 0b09  ................
	0x0060:  6c6f 6361 6c68 6f73 7400 0000 29ff d600  localhost...)...
	0x0070:  0000 0000 00                             .....
21:45:48.079791 IP localhost.3000 > localhost.8080: UDP, length 12
	0x0000:  0000 0000 0000 0000 0000 0000 0800 4500  ..............E.
	0x0010:  0028 afcd 4000 4011 8cf5 7f00 0001 7f00  .(..@.@.........
	0x0020:  0001 0bb8 1f90 0014 cdf6 7465 7374 206d  ..........test.m
	0x0030:  6573 7361 6765                           essage
21:45:48.086611 IP localhost.43046 > localhost.6010: Flags [P.], seq 1450688097:1450688293, ack 3119803263, win 24565, options [nop,nop,TS val 1200850565 ecr 1200840823], length 196
	0x0000:  0000 0000 0000 0000 0000 0000 0800 4500  ..............E.
	0x0010:  00f8 3154 4000 4006 0aaa 7f00 0001 7f00  ..1T@.@.........
	0x0020:  0001 a826 177a 5677 be61 b9f4 6b7f 8018  ...&.zVw.a..k...
	0x0030:  5ff5 feec 0000 0101 080a 4793 8685 4793  _.........G...G.
	0x0040:  6077 4d01 0500 1a00 e001 1900 e001 0200  `wM.............
	0x0050:  3801 0020 0000 4d50 2c00 1a00 e001 1900  8.....MP,.......
	0x0060:  e001 0200 3801 005b 0030 0020 0030 0020  ....8..[.0...0..
	0x0070:  0030 0020 0030 0020 0030 0020 0030 0020  .0...0...0...0..
	0x0080:  0030 0020 0030 0020 0030 0020 0030 0020  .0...0...0...0..
	0x0090:  0030 0020 0030 0020 0038 0020 0030 0020  .0...0...8...0..
	0x00a0:  0036 0039 0020 0030 0020 0030 0020 0034  .6.9...0...0...4
	0x00b0:  0030 0020 0031 0037 0035 0020 0032 0030  .0...1.7.5...2.0
	0x00c0:  0035 0020 0036 0034 0020 0030 0020 0036  .5...6.4...0...6
	0x00d0:  0034 0020 0031 0037 0020 0031 0034 0030  .4...1.7...1.4.0
	0x00e0:  0020 0032 0034 0035 0020 0031 0032 0037  ...2.4.5...1.2.7
	0x00f0:  0020 0030 0020 0030 0020 0031 0020 0031  ...0...0...1...1
	0x0100:  0032 0037 0020                           .2.7..
21:45:48.086622 IP localhost.6010 > localhost.43046: Flags [.], ack 196, win 511, options [nop,nop,TS val 1200850565 ecr 1200850565], length 0
	0x0000:  0000 0000 0000 0000 0000 0000 0800 4500  ..............E.
	0x0010:  0034 1bbc 4000 4006 2106 7f00 0001 7f00  .4..@.@.!.......
	0x0020:  0001 177a a826 b9f4 6b7f 5677 bf25 8010  ...z.&..k.Vw.%..
	0x0030:  01ff fe28 0000 0101 080a 4793 8685 4793  ...(......G...G.
	0x0040:  8685                                     ..
21:45:48.086858 IP localhost.43046 > localhost.6010: Flags [P.], seq 196:728, ack 1, win 24565, options [nop,nop,TS val 1200850565 ecr 1200850565], length 532
	0x0000:  0000 0000 0000 0000 0000 0000 0800 4500  ..............E.
	0x0010:  0248 3155 4000 4006 0959 7f00 0001 7f00  .H1U@.@..Y......
	0x0020:  0001 a826 177a 5677 bf25 b9f4 6b7f 8018  ...&.zVw.%..k...
	0x0030:  5ff5 003d 0000 0101 080a 4793 8685 4793  _..=......G...G.
	0x0040:  8685 3e01 0700 1a00 e001 1a00 e001 1900  ..>.............
	0x0050:  e001 0200 1c00 0200 0200 e001 1e01 0200  ................
	0x0060:  0400 0f00 e001 0200 0000 0000 0000 0220  ................
	0x0070:  0400 1a00 e001 0200 0000 0000 0000 3d00  ..............=.
	0x0080:  0400 1a00 e001 0200 2001 e001 1a00 0220  ................
	0x0090:  0400 0f00 e001 0200 0000 0000 0000 0220  ................
	0x00a0:  0400 1a00 e001 0200 0000 0000 0000 4d4f  ..............MO
	0x00b0:  2c00 1a00 e001 1900 e001 0200 2b01 0030  ,...........+..0
	0x00c0:  0020 0030 0020 0031 0020 0031 0031 0020  ...0...1...1.1..
	0x00d0:  0031 0038 0034 0020 0033 0031 0020 0031  .1.8.4...3.1...1
	0x00e0:  0034 0034 0020 0030 0020 0032 0030 0020  .4.4...0...2.0..
	0x00f0:  0032 0030 0035 0020 0032 0034 0036 0020  .2.0.5...2.4.6..
	0x0100:  0031 0031 0036 0020 0031 0030 0031 0020  .1.1.6...1.0.1..
	0x0110:  0031 0031 0035 0020 0031 0031 0036 0020  .1.1.5...1.1.6..
	0x0120:  0033 0032 0020 0031 0030 0039 0020 0031  .3.2...1.0.9...1
	0x0130:  0030 0031 0020 0031 0031 0035 0020 0031  .0.1...1.1.5...1
	0x0140:  0031 0035 0020 0039 0037 0020 0031 0030  .1.5...9.7...1.0
	0x0150:  0033 0020 0031 0030 0031 005d 0020 4d01  .3...1.0.1.]..M.
	0x0160:  0500 1a00 e001 1900 e001 dc01 2b01 0020  ............+...
	0x0170:  0020 4d50 2c00 1a00 e001 1900 e001 0200  ..MP,...........
	0x0180:  3801 0020 0020 0020 0020 0020 0020 0020  8...............
	0x0190:  0020 0020 0020 0020 0020 0020 0020 0020  ................
	0x01a0:  0020 0020 0020 0020 0020 0020 0020 0020  ................
	0x01b0:  0020 0020 0020 0020 0020 0020 0020 0020  ................
	0x01c0:  0020 0020 0020 0020 0020 0020 0020 0020  ................
	0x01d0:  0020 0020 0020 0020 0020 0020 0020 0020  ................
	0x01e0:  0020 0020 0020 0020 0020 0020 0020 0020  ................
	0x01f0:  0020 0020 0020 0020 0020 0020 0020 0020  ................
	0x0200:  0020 0020 0020 0020 0020 0020 0020 0020  ................
	0x0210:  0020 0020 0020 0020 0020 0020 0020 0020  ................
	0x0220:  0020 4d01 0500 1a00 e001 1900 e001 0200  ..M.............
	0x0230:  3801 0020 0020 4101 0800 1a00 e001 1f00  8.....A.........
	0x0240:  e001 0200 2d01 0500 0000 0000 0c00 fbff  ....-...........
	0x0250:  0000 0000 f4ff                           ......
21:45:48.086862 IP localhost.6010 > localhost.43046: Flags [.], ack 728, win 507, options [nop,nop,TS val 1200850565 ecr 1200850565], length 0
	0x0000:  0000 0000 0000 0000 0000 0000 0800 4500  ..............E.
	0x0010:  0034 1bbd 4000 4006 2105 7f00 0001 7f00  .4..@.@.!.......
	0x0020:  0001 177a a826 b9f4 6b7f 5677 c139 8010  ...z.&..k.Vw.9..
	0x0030:  01fb fe28 0000 0101 080a 4793 8685 4793  ...(......G...G.
	0x0040:  8685                                     ..
21:45:48.097109 IP localhost.6010 > localhost.43046: Flags [P.], seq 1:33, ack 728, win 512, options [nop,nop,TS val 1200850576 ecr 1200850565], length 32
	0x0000:  0000 0000 0000 0000 0000 0000 0800 4500  ..............E.
	0x0010:  0054 1bbe 4000 4006 20e4 7f00 0001 7f00  .T..@.@.........
	0x0020:  0001 177a a826 b9f4 6b7f 5677 c139 8018  ...z.&..k.Vw.9..
	0x0030:  0200 fe48 0000 0101 080a 4793 8690 4793  ...H......G...G.
	0x0040:  8685 0e00 5d04 1a00 e001 0000 3e00 0000  ....].......>...
	0x0050:  0000 0000 0000 0000 0000 0000 0000 0000  ................
	0x0060:  0000                                     ..
21:45:48.097128 IP localhost.43046 > localhost.6010: Flags [.], ack 33, win 24565, options [nop,nop,TS val 1200850576 ecr 1200850576], length 0
	0x0000:  0000 0000 0000 0000 0000 0000 0800 4500  ..............E.
	0x0010:  0034 3156 4000 4006 0b6c 7f00 0001 7f00  .41V@.@..l......
	0x0020:  0001 a826 177a 5677 c139 b9f4 6b9f 8010  ...&.zVw.9..k...
	0x0030:  5ff5 fe28 0000 0101 080a 4793 8690 4793  _..(......G...G.
	0x0040:  8690                                     ..
21:45:48.176051 IP localhost.43046 > localhost.6010: Flags [P.], seq 728:752, ack 33, win 24565, options [nop,nop,TS val 1200850655 ecr 1200850576], length 24
	0x0000:  0000 0000 0000 0000 0000 0000 0800 4500  ..............E.
	0x0010:  004c 3157 4000 4006 0b53 7f00 0001 7f00  .L1W@.@..S......
	0x0020:  0001 a826 177a 5677 c139 b9f4 6b9f 8018  ...&.zVw.9..k...
	0x0030:  5ff5 fe40 0000 0101 080a 4793 86df 4793  _..@......G...G.
	0x0040:  8690 1400 0600 0f00 e001 0701 0000 ef00  ................
	0x0050:  0000 0000 0000 0004 0000                 ..........
21:45:48.176439 IP localhost.6010 > localhost.43046: Flags [.], ack 752, win 512, options [nop,nop,TS val 1200850655 ecr 1200850655], length 0
	0x0000:  0000 0000 0000 0000 0000 0000 0800 4500  ..............E.
	0x0010:  0034 1bbf 4000 4006 2103 7f00 0001 7f00  .4..@.@.!.......
	0x0020:  0001 177a a826 b9f4 6b9f 5677 c151 8010  ...z.&..k.Vw.Q..
	0x0030:  0200 fe28 0000 0101 080a 4793 86df 4793  ...(......G...G.
	0x0040:  86df                                     ..
21:45:48.177543 IP localhost.6010 > localhost.43046: Flags [P.], seq 33:113, ack 752, win 512, options [nop,nop,TS val 1200850656 ecr 1200850655], length 80
	0x0000:  0000 0000 0000 0000 0000 0000 0800 4500  ..............E.
	0x0010:  0084 1bc0 4000 4006 20b2 7f00 0001 7f00  ....@.@.........
	0x0020:  0001 177a a826 b9f4 6b9f 5677 c151 8018  ...z.&..k.Vw.Q..
	0x0030:  0200 fe78 0000 0101 080a 4793 86e0 4793  ...x......G...G.
	0x0040:  86df 0108 6804 0c00 0000 ef00 0000 0000  ....h...........
	0x0050:  0000 2d00 0000 0000 0000 0000 0000 0000  ..-.............
	0x0060:  0000 616c 6173 7069 6e61 4061 6461 6d75  ..alaspina@adamu
	0x0070:  6275 6e74 7576 6d3a 207e 2f70 6163 6b65  buntuvm:.~/packe
	0x0080:  742d 7374 6567 616e 6f67 7261 7068 7900  t-steganography.
	0x0090:  0000                                     ..
21:45:48.177547 IP localhost.43046 > localhost.6010: Flags [.], ack 113, win 24565, options [nop,nop,TS val 1200850656 ecr 1200850656], length 0
	0x0000:  0000 0000 0000 0000 0000 0000 0800 4500  ..............E.
	0x0010:  0034 3158 4000 4006 0b6a 7f00 0001 7f00  .41X@.@..j......
	0x0020:  0001 a826 177a 5677 c151 b9f4 6bef 8010  ...&.zVw.Q..k...
	0x0030:  5ff5 fe28 0000 0101 080a 4793 86e0 4793  _..(......G...G.
	0x0040:  86e0                                     ..
21:45:48.177614 IP localhost.43046 > localhost.6010: Flags [P.], seq 752:776, ack 113, win 24565, options [nop,nop,TS val 1200850656 ecr 1200850656], length 24
	0x0000:  0000 0000 0000 0000 0000 0000 0800 4500  ..............E.
	0x0010:  004c 3159 4000 4006 0b51 7f00 0001 7f00  .L1Y@.@..Q......
	0x0020:  0001 a826 177a 5677 c151 b9f4 6bef 8018  ...&.zVw.Q..k...
	0x0030:  5ff5 fe40 0000 0101 080a 4793 86e0 4793  _..@......G...G.
	0x0040:  86e0 1400 0600 0f00 e001 f000 0000 ef00  ................
	0x0050:  0000 0000 0000 0004 0000                 ..........
21:45:48.177668 IP localhost.6010 > localhost.43046: Flags [.], ack 776, win 512, options [nop,nop,TS val 1200850656 ecr 1200850656], length 0
	0x0000:  0000 0000 0000 0000 0000 0000 0800 4500  ..............E.
	0x0010:  0034 1bc1 4000 4006 2101 7f00 0001 7f00  .4..@.@.!.......
	0x0020:  0001 177a a826 b9f4 6bef 5677 c169 8010  ...z.&..k.Vw.i..
	0x0030:  0200 fe28 0000 0101 080a 4793 86e0 4793  ...(......G...G.
	0x0040:  86e0                                     ..
21:45:48.178264 IP localhost.6010 > localhost.43046: Flags [P.], seq 113:193, ack 776, win 512, options [nop,nop,TS val 1200850657 ecr 1200850656], length 80
	0x0000:  0000 0000 0000 0000 0000 0000 0800 4500  ..............E.
	0x0010:  0084 1bc2 4000 4006 20b0 7f00 0001 7f00  ....@.@.........
	0x0020:  0001 177a a826 b9f4 6bef 5677 c169 8018  ...z.&..k.Vw.i..
	0x0030:  0200 fe78 0000 0101 080a 4793 86e1 4793  ...x......G...G.
	0x0040:  86e0 0108 6904 0c00 0000 ef00 0000 0000  ....i...........
	0x0050:  0000 2d00 0000 0000 0000 0000 0000 0000  ..-.............
	0x0060:  0000 616c 6173 7069 6e61 4061 6461 6d75  ..alaspina@adamu
	0x0070:  6275 6e74 7576 6d3a 207e 2f70 6163 6b65  buntuvm:.~/packe
	0x0080:  742d 7374 6567 616e 6f67 7261 7068 7900  t-steganography.
	0x0090:  0000                                     ..
21:45:48.178267 IP localhost.43046 > localhost.6010: Flags [.], ack 193, win 24565, options [nop,nop,TS val 1200850657 ecr 1200850657], length 0
	0x0000:  0000 0000 0000 0000 0000 0000 0800 4500  ..............E.
	0x0010:  0034 315a 4000 4006 0b68 7f00 0001 7f00  .41Z@.@..h......
	0x0020:  0001 a826 177a 5677 c169 b9f4 6c3f 8010  ...&.zVw.i..l?..
	0x0030:  5ff5 fe28 0000 0101 080a 4793 86e1 4793  _..(......G...G.
	0x0040:  86e1                                     ..
21:45:48.178350 IP localhost.43046 > localhost.6010: Flags [P.], seq 776:956, ack 193, win 24565, options [nop,nop,TS val 1200850657 ecr 1200850657], length 180
	0x0000:  0000 0000 0000 0000 0000 0000 0800 4500  ..............E.
	0x0010:  00e8 315b 4000 4006 0ab3 7f00 0001 7f00  ..1[@.@.........
	0x0020:  0001 a826 177a 5677 c169 b9f4 6c3f 8018  ...&.zVw.i..l?..
	0x0030:  5ff5 fedc 0000 0101 080a 4793 86e1 4793  _.........G...G.
	0x0040:  86e1 4d01 0500 1a00 e001 1900 e001 0200  ..M.............
	0x0050:  3801 0020 0000 4d2e 1b00 1a00 e001 1900  8.....M.........
	0x0060:  e001 0200 3801 0061 006c 0061 0073 0070  ....8..a.l.a.s.p
	0x0070:  0069 006e 0061 0040 0061 0064 0061 006d  .i.n.a.@.a.d.a.m
	0x0080:  0075 0062 0075 006e 0074 0075 0076 006d  .u.b.u.n.t.u.v.m
	0x0090:  003a 007e 002f 0070 0061 0063 006b 0065  .:.~./.p.a.c.k.e
	0x00a0:  0074 002d 0073 0074 0065 0067 0061 006e  .t.-.s.t.e.g.a.n
	0x00b0:  006f 0067 0072 0061 0070 0068 0079 0024  .o.g.r.a.p.h.y.$
	0x00c0:  0020 4d01 0500 1a00 e001 1900 e001 1601  ..M.............
	0x00d0:  3801 0020 0034 4101 0800 1a00 e001 1f00  8....4A.........
	0x00e0:  e001 1601 2d01 0500 0000 0000 0c00 fbff  ....-...........
	0x00f0:  0000 0000 f4ff                           ......
21:45:48.178412 IP localhost.6010 > localhost.43046: Flags [.], ack 956, win 512, options [nop,nop,TS val 1200850657 ecr 1200850657], length 0
	0x0000:  0000 0000 0000 0000 0000 0000 0800 4500  ..............E.
	0x0010:  0034 1bc3 4000 4006 20ff 7f00 0001 7f00  .4..@.@.........
	0x0020:  0001 177a a826 b9f4 6c3f 5677 c21d 8010  ...z.&..l?Vw....
	0x0030:  0200 fe28 0000 0101 080a 4793 86e1 4793  ...(......G...G.
	0x0040:  86e1                                     ..

