                           .....
21:45:48.079791 IP localhost.3000 > localhost.8080: UDP, length 12
	0x0000:  0000 0000 0000 0000 0000 0000 0800 4500  ..............E.
	0x0010:  0028 afcd 4000 4011 8cf5 7f00 0001 7f00  .(..@.@.........
	0x0020:  0001 0bb8 1f90 0014 cdf6 7465 7374 206d  ..........test.m
	0x0030:  6573 7361 6765                           essage
